:1000000066C0000081C000007FC000007DC000000D
:100010007BC0000079C0000077C0000075C0000000
:1000200073C0000071C000006FC000006DC0000010
:100030006BC0000069C0000067C0000065C0000020
:1000400063C0000061C000005FC000005DC0000030
:100050005BC0000059C0000057C0000055C0000040
:1000600053C0000051C000004FC000004DC0000050
:100070004BC0000049C0000047C0000045C0000060
:1000800043C0000041C000003FC000003DC0000070
:100090003BC0000039C0000037C0000035C0000080
:1000A00033C0000031C000002FC00000A20EAB0E14
:1000B000B50ED30EEE0E090F240F3F0F5A0F680F27
:1000C000830F9E0FB90FD30FDC0FE60F980E11248C
:1000D0001FBECFEFD3E2DEBFCDBF10E2A0E0B0E2A3
:1000E000E4E7F2E202C005900D92AA35B107D9F714
:1000F00021E2AAE5B0E201C01D92A13CB207E1F7FE
:100100000E94B6100C9438117BCF82E0E0E4F6E058
:100110008583089582E0E0E4F6E08683089590E820
:100120009093460698E09093460620E838E087FDD5
:1001300020934506309345063093460620934606A5
:10014000880F9150A1F780E88093460688E080935D
:100150004606089580E88093460688E08093460628
:1001600098E080E028E030E820934506880F409131
:10017000480645FD8160309346062093460691501F
:1001800099F790E89093460698E090934606089574
:10019000E0E4F6E082E08583818388E0818380E883
:1001A000818380E282830895F3DF82E0E0E4F6E079
:1001B00085830895E0E4F6E080E4818390E1928312
:1001C000858308950F931F93CF93DF93CDB7DEB749
:1001D0006197CDBFDEBF8C0180E1E9E4F0E2DE0192
:1001E000119601900D928A95E1F7E4DFDDDF65E875
:1001F00070E08AE890E000D76FE870E08AEA90E06B
:1002000016D7BE016F5F7F4F81E090E00E94DF094B
:100210008F3F09F4FFCFBE016F5E7F4F8FE090E00C
:100220000E94DF0989898823B1F3B80180E090E05A
:100230000E94470BB80181E090E00E94470B619655
:10024000CDBFDEBFDF91CF911F910F910895BF9277
:10025000CF92DF92EF92FF920F931F93CF93DF9392
:10026000B82E88E08B1508F44CC00B2D10E0E80187
:1002700095E0CC0FDD1F9A95E1F728966E01D39497
:10028000EE24D7FCE094FE2C40E1C701B601C0D3B8
:10029000C701B6017CD38111FBCFBE017E5F8827E9
:1002A00077FD8095982F4FE1B3D321E030E002C075
:1002B000220F331FBA94E2F72095309580915C208D
:1002C00090915D208223932380935C2090935D2006
:1002D000F801EE0FFF1FE25AFF4D10821182F80164
:1002E000E259FF4D10826E018DEFD81AEE24D7FC33
:1002F000E094FE2CC701B6014AD38111FBCF81E007
:1003000001C08FEFDF91CF911F910F91FF90EF9080
:10031000DF90CF90BF9008956F927F928F929F92BF
:10032000AF92BF92CF92DF92EF92FF920F931F9303
:10033000CF93DF931F92CDB7DEB7982E7A01822E2E
:1003400028E0281708F4AAC0613008F4A9C0633077
:1003500018F0643009F0A4C0882D867009F0A2C09E
:10036000882089F0613019F0623069F404C0882D6A
:10037000817249F497C085FE02C087FE93C084FE57
:1003800002C087FE8FC0892D698361DFA92CB12C43
:10039000350135E0660C771C3A95E1F788E0680E88
:1003A000711C482D407F6981462BB301882777FD5A
:1003B0008095982F2DD3E114F10489F4E09000206A
:1003C000F0900120C7010196803FEFEF9E0709F0F2
:1003D00002C080E090EC8093002090930120B30154
:1003E0007C5F882777FD8095982F4F2D11D3B3011F
:1003F0007B5F882777FD8095982F4E2D09D3630169
:10040000D394EE24D7FCE094FE2C41E0C701B60162
:10041000FFD2C701B601BBD28111FBCF082D0170FD
:1004200010E0092C02C0000F111F0A94E2F780911E
:100430005A2090915B20802B912B80935A2090938F
:100440005B2081E090E0092C02C0880F991F0A947C
:10045000E2F78095909520915C2030915D202823D3
:10046000392320935C2030935D20F501EE0FFF1FB0
:10047000E25AFF4D10821182F501E259FF4D1082C0
:1004800063012DEFD21AEE24D7FCE094FE2CC701B5
:10049000B6017DD28823D9F3892D05C08FEF03C023
:1004A0008BEF01C08AEF0F90DF91CF911F910F91D9
:1004B000FF90EF90DF90CF90BF90AF909F908F9084
:1004C0007F906F9008954F925F926F927F929F926C
:1004D000AF92BF92CF92DF92EF92FF920F931F9352
:1004E000CF93DF93982E2B015A01390188E08915AB
:1004F00008F4B2C0E4E09E9EE00111242196B3E02E
:10050000CC0FDD1FBA95E1F7BE01882777FD8095F6
:10051000982F3DD28F70823019F0843009F0A0C03E
:10052000A114B10409F4A1C0F30180819181A281D9
:10053000B381892B8A2B8B2B09F49CC001151105E3
:1005400009F49DC06E01FDEFDF1AEE24D7FCE094A4
:10055000FE2CC701B6011BD2823419F0823209F099
:1005600093C0BE01745F882777FD8095982F24E0A3
:1005700030E0A301E2D2BE01705F882777FD80954D
:10058000982F412F45D2BE017F5E882777FD809549
:10059000982F402F3DD2BE01715E882777FD809550
:1005A000982FF5D100E0182F110F110FA016B106EA
:1005B00008F48501AA24A394B12C092C02C0AA0C2A
:1005C000BB1C0A94E2F7892D0DD33C01C701B6018B
:1005D000DED1882309F45DC080915A2090915B2080
:1005E0008A219B21892B21F06016710620F456C0C8
:1005F0006016710640F3A801B201892DA3D36E01E4
:10060000D394EE24D7FCE094FE2C40E2C701B6015F
:10061000FFD1C701B601BBD18111FBCF6E01EEEF57
:10062000DE1AEE24D7FCE094FE2CC701B601AFD150
:1006300084FF07C040E1C701B601EAD120E030E005
:1006400030C083FFF2CF48E0C701B601E1D103EF2C
:100650001FEF2FEF3FEF25C00FEF1FEF980121C0D5
:100660000BEF1FEF2FEF3FEF1CC002EF1FEF2FEF3D
:100670003FEF17C004EF1FEF2FEF3FEF12C005EF62
:100680001FEF2FEF3FEF0DC009EF1FEF2FEF3FEFF1
:1006900008C00CEF1FEF2FEF3FEF03C000E010E0AA
:1006A0009801B801C901DF91CF911F910F91FF907F
:1006B000EF90DF90CF90BF90AF909F907F906F9022
:1006C0005F904F9008952F923F924F925F927F924A
:1006D0008F929F92AF92BF92CF92DF92EF92FF9252
:1006E0000F931F93CF93DF93CDB7DEB72F97CDBF77
:1006F000DEBF782E4B015A0129873A870B871C876A
:1007000028E0281708F416C1E82EF12C670175E0DF
:10071000CC0CDD1C7A95E1F788E0C80ED11CB6013F
:10072000882777FD8095982F32D1482F8F7082309F
:1007300019F0843009F002C1A114B10409F403C115
:10074000F701EE0FFF1FE25AFF4D80819181892B47
:1007500071F521E030E0072C02C0220F331F0A940C
:10076000E2F716019DEF391A442437FC4094542CCB
:10077000872D2E873F874D878DD28C01C201B10115
:1007800006D12E853F854D85882309F4E1C08091EF
:100790005A2090915B2082239323892B21F001150D
:1007A000110539F4DAC00115110511F302C000E09A
:1007B00010E0F701E259FF4D108247702701440C09
:1007C000551C423021F0443009F087C03EC0F20190
:1007D000E25AFF4D80819181892B09F06EC048E07B
:1007E00050E0BE016F5F7F4F872D2ED316013394EB
:1007F000442437FC4094542C40E4C201B10108D198
:10080000C201B101C4D08111FBCF8981E985FA858C
:1008100080838A8181838B8182838C8183839D8184
:1008200080E02E81820F911DEB85FC858083918372
:10083000F701EE0FFF1FE25AFF4D9F8180E02885F0
:10084000820F911D8083918333C0F201E25AFF4DE4
:1008500080819181892B89F542E050E0BE016F5F74
:100860007F4F872DF1D216013394442437FC4094F6
:10087000542C40E4C201B101CBD0C201B10187D0F8
:100880008111FBCF998180E02A81820F911DF701B0
:10089000EE0FFF1FE25AFF4D808391838B3E954000
:1008A00038F0872DD4DC07E11CEF2FEF3FEF58C065
:1008B000F701E259FF4D80E88083F701EE0FFF1F3B
:1008C000E25AFF4D00811181A016B10608F485019E
:1008D000A801B401872DB8D208C0B801872D36D33E
:1008E000F201E25AFF4D0083118346019394AA243A
:1008F00097FCA094BA2C40E4C501B40189D0C5018D
:10090000B40145D08111FBCFF701EE0FFF1FE25A72
:10091000FF4D80819181801B910B80839183892B76
:1009200031F0F701E259FF4D80818160808320E042
:1009300030E016C00FEF1FEF980112C00BEF1FEF52
:100940002FEF3FEF0DC002EF1FEF2FEF3FEF08C07B
:100950000CEF1FEF2FEF3FEF03C000E010E0980116
:10096000B801C9012F96CDBFDEBFDF91CF911F9196
:100970000F91FF90EF90DF90CF90BF90AF909F903E
:100980008F907F905F904F903F902F9008950F939E
:100990001F93CF93DF9300D01F92CDB7DEB7E091C6
:1009A0000A20F0910B206A8379838B830995E0916B
:1009B0000E20F0910F20099504E110E2D801ED918D
:1009C000FC918B810995D801ED91FC917981872F5C
:1009D0000995D801ED91FC916A81862F0995E091E6
:1009E0001220F09113200995E0911020F091112030
:1009F0008B830995E0910C20F0910D2009958B8156
:100A00002396CDBFDEBFDF91CF911F910F91089547
:100A10000F931F93CF93DF9300D000D0CDB7DEB7F5
:100A2000E0910A20F0910B204C836B837A838983B9
:100A30000995E0910E20F0910F20099504E110E254
:100A4000D801ED91FC9189810995D801ED91FC9136
:100A50007A81872F0995D801ED91FC916B81862FC2
:100A600084600995D801ED91FC914C81842F099502
:100A7000E0911020F09111200995E0910C20F09167
:100A80000D202496CDBFDEBFDF91CF911F910F9136
:100A90000994EF92FF920F931F93CF93DF93CDB7FB
:100AA000DEB72597CDBFDEBF8901E0910A20F09126
:100AB0000B204C835D836B837A8389830995E09156
:100AC0000E20F0910F200995E0911420F09115204F
:100AD00089810995E0911420F09115207A81872F62
:100AE0000995E0911420F09115206B81862F0995CE
:100AF0004C81E42E5D81F52E0E0D1F1D08C0E09186
:100B00001220F09113200995D7018D937D01E016F5
:100B1000F106A9F7E0911020F09111200995E091DC
:100B20000C20F0910D202596CDBFDEBFDF91CF9137
:100B30001F910F91FF90EF900994EF92FF920F9306
:100B40001F93CF93DF93CDB7DEB72597CDBFDEBF21
:100B50008901E0910A20F0910B204C835D836B8327
:100B60007A8389830995E0910E20F0910F200995F1
:100B7000E0911420F091152089810995E0911420CD
:100B8000F09115207A81872F0995E0911420F0913A
:100B900015206B81862F846009954C81E42E5D8140
:100BA000F52E0E0D1F1D08C0E0911420F0911520A8
:100BB000D7018D917D010995E016F106A9F7E09125
:100BC0001020F09111200995E0910C20F0910D205A
:100BD0002596CDBFDEBFDF91CF911F910F91FF9082
:100BE000EF9009944F925F926F927F928F929F92B3
:100BF000AF92BF92CF92DF92EF92FF920F931F932B
:100C0000CF93DF9324E0829FC0011124019623E05B
:100C1000880F991F2A95E1F76C0120EED21AEE2475
:100C2000D7FCE094FE2C2C012FED521A662457FCC1
:100C30006094762CC0E0D0E0C701B601A8DE182F82
:100C400000E0C301B201A3DE4801880E911C8114AB
:100C5000910459F0C701B6019ADEB82EA12CC30148
:100C6000B20195DEE501C80FD11DC815D90521F7E0
:100C7000CE01DF91CF911F910F91FF90EF90DF9008
:100C8000CF90BF90AF909F908F907F906F905F902C
:100C90004F9008954F925F926F927F928F929F92A2
:100CA000AF92BF92CF92DF92EF92FF920F931F937A
:100CB000CF93DF9324E0829FC0011124019633E09B
:100CC000880F991F3A95E1F76C012AEDD21AEE24AC
:100CD000D7FCE094FE2C2C0129ED521A662457FC17
:100CE0006094762CC0E0D0E0C701B60150DE182F2A
:100CF00000E0C301B2014BDE4801880E911C811453
:100D0000910459F0C701B60142DEB82EA12CC301EF
:100D1000B2013DDEE501C80FD11DC815D90521F787
:100D2000CE01DF91CF911F910F91FF90EF90DF9057
:100D3000CF90BF90AF909F908F907F906F905F907B
:100D40004F9008952F923F924F925F926F927F92B1
:100D50009F92AF92BF92CF92DF92EF92FF920F934A
:100D60001F93CF93DF935B01EA01209709F45AC0E8
:100D700094E0899F1001112461018FEFC81AD80AED
:100D800043E0CC0CDD1C4A95E1F726019CED591A95
:100D9000662457FC6094762CC301B201F8DD982ECE
:100DA0008BEDD81AEE24D7FCE094FE2CC701B601D7
:100DB000EEDD192D00E0080F111DC801A0E0B0E024
:100DC0006627782F892F9A2F91012E5F3F4FE3E0FE
:100DD000220F331FEA95E1F7442737FD4095542F42
:100DE000620F731F841F951F9E01A501A6DEC00F11
:100DF000D11F4D2FC301B2010BDE4C2FC701B6012D
:100E0000DF91CF911F910F91FF90EF90DF90CF90E6
:100E1000BF90AF909F907F906F905F904F903F906A
:100E20002F90F6CDDF91CF911F910F91FF90EF9012
:100E3000DF90CF90BF90AF909F907F906F905F902A
:100E40004F903F902F9008952F923F924F925F9234
:100E50006F927F929F92AF92BF92CF92DF92EF926A
:100E6000FF920F931F93CF93DF935B01EA012097CB
:100E700009F45AC094E0899F1001112461018FEF99
:100E8000C81AD80AF3E0CC0CDD1CFA95E1F726016C
:100E900098ED591A662457FC6094762CC301B20170
:100EA00076DD982E87EDD81AEE24D7FCE094FE2C40
:100EB000C701B6016CDD192D00E0080F111DC80136
:100EC000A0E0B0E06627782F892F9A2F91012D5F3F
:100ED0003F4F43E0220F331F4A95E1F7442737FD88
:100EE0004095542F620F731F841F951F9E01A5010B
:100EF000D0DDC00FD11F4D2FC301B20189DD4C2FB2
:100F0000C701B601DF91CF911F910F91FF90EF9034
:100F1000DF90CF90BF90AF909F907F906F905F9049
:100F20004F903F902F9074CDDF91CF911F910F91F3
:100F3000FF90EF90DF90CF90BF90AF909F907F9009
:100F40006F905F904F903F902F9008957F928F9277
:100F50009F92AF92BF92CF92DF92EF92FF920F9348
:100F60001F93CF93DF93EB0194E0899F60011124DD
:100F70008FEFC81AD80A53E0CC0CDD1C5A95E1F764
:100F8000460198ED991AAA2497FCA094BA2CC501A1
:100F9000B401FDDC782E87EDD81AEE24D7FCE0945E
:100FA000FE2CC701B601F3DC172D00E0080F111D60
:100FB0000C0F1D1F412FC501B4012ADD402FC701B1
:100FC000B601DF91CF911F910F91FF90EF90DF90CD
:100FD000CF90BF90AF909F908F907F9019CD089544
:100FE000089508950895FB0180810895FB014083D1
:100FF000089580E008950895009719F0611571052E
:1010000069F481EF97E080930E2090930F2082EF98
:1010100097E08093102090931120089580930E20E4
:1010200090930F20609310207093112008952091C9
:1010300002203091032031FF1BC0009719F0611589
:10104000710569F489EF97E0809312209093132043
:101050008BEF97E080931420909315200895809350
:1010600012209093132060931420709315200895FC
:10107000FFCFCF93DF93CDB7DEB76297CDBFDEBF93
:1010800026E030E0AE014F5F5F4F60E079E080E046
:1010900090E0FFDC24E030E0AE01415F5F4F60E0B4
:1010A00071E080E090E0F5DC24E030E0AE01455FE7
:1010B0005F4F60E075E080E090E0EBDC24E030E042
:1010C000AE01495F5F4F60E07FE080E090E0E1DCEF
:1010D00040E860E070E0CB019BDC60E070E0CB01B9
:1010E00056DC26E030E0AE014F5F5F4F60E079E014
:1010F00080E090E022DD24E030E0AE01415F5F4F10
:1011000060E071E080E090E018DD24E030E0AE01C6
:10111000455F5F4F60E075E080E090E00EDD24E029
:1011200030E0AE01495F5F4F60E07FE080E090E03B
:1011300004DD6296CDBFDEBFDF91CF910895EF92BF
:10114000FF920F931F93CF93DF937C018B0191DF6D
:10115000E114F10421F40115110529F522C0F7016C
:1011600080E090E02191820F9F5F9830D9F7813124
:1011700014F08FEF38C0C1E0D0E0F70141917F015A
:10118000BE0193E0660F771F9A95E1F7715E88279D
:1011900077FD8095982F3CDC2496C132D10569F704
:1011A000DACF80E020C0F80180E090E02191820F4A
:1011B0009F5F9830D9F78131E4F6C1E0D0E0F801C3
:1011C00041918F01BE0183E0660F771F8A95E1F799
:1011D000725E882777FD8095982F1ADC2496C1329D
:1011E000D10569F7DECFDF91CF911F910F91FF906D
:1011F000EF900895CF93DF93EC01AC01407F55272A
:1012000060E075E180E090E003DC4D2F60E077E185
:1012100080E090E0DF91CF91FBCBCF9360E075E170
:1012200080E090E0B4DBC82F60E077E180E090E000
:10123000AEDB382F20E0C07F2C0F311DC901CF91CC
:101240000895CF93C92F482F60E076E180E090E0C9
:10125000DFDB4C2F60E078E180E090E0CF91D8CBED
:10126000CF9360E076E180E090E091DBC82F60E012
:1012700078E180E090E08BDB382F20E02C0F311DEF
:10128000C901CF91089560E07EE280E090E07FDBCD
:101290008170089560E07EE280E090E078DB982F36
:1012A000907381E009F480E0089560E07EE280E0E0
:1012B00090E06DDB482F4F7760E07EE280E090E0C9
:1012C000A7DB60E07EE280E090E061DB482F4068D1
:1012D00060E07EE280E090E09BCBFC018081813089
:1012E00011F440E401C040E08181813011F4486391
:1012F0000DC093818281913031F4813011F44861C5
:1013000005C0486003C0813009F4406160E07EE2BE
:1013100080E090E07DDBC9CFCF93DF93EC0160E00C
:101320007EE280E090E033DB86FB992790F998839A
:101330008873803211F0883319F491E0998301C0E9
:101340001982883121F0803211F0803119F491E056
:101350009A8301C01A82883121F0803211F08830DE
:1013600019F481E08B8301C01B82DF91CF91089536
:10137000CF93C82F60E07EE280E090E008DB86FD3E
:1013800002C08FEF1AC0482F477CC13011F4406370
:1013900001C0486360E07EE280E090E039DB85DFF9
:1013A00060E07EE280E090E0F2DAC13011F4807318
:1013B00001C08873882329F380E0CF9108951F939B
:1013C000CF93DF93EB018730910509F455C078F492
:1013D00083309105B1F128F48130910521F1A8F510
:1013E00020C085309105B9F108F039C030C08B308C
:1013F000910509F469C038F48930910509F45FC09A
:1014000008F05FC04BC08D30910509F460C008F44E
:101410006BC08E30910509F45FC00F9709F461C06D
:101420005EC027DE61C0209721F0685F7F4FCE014C
:1014300004C060E070E080E090E0DF91CF911F9108
:101440007ECE88819981D6DE4FC0E7DE05C08881D7
:101450009981F7DE49C004DF8883998345C04981BB
:1014600060E073E180E090E0D3DA488160E074E10D
:1014700080E090E0CDDA38C060E073E180E090E099
:1014800086DA182F60E074E180E090E080DA312F96
:1014900020E0280F311D2883398326C08091042045
:1014A0008883809105208983809106208A8380919A
:1014B00007208B83809108208C831D8215C0F5DE68
:1014C00013C0CB010ADF10C0CB0126DF0DC088811D
:1014D000DF91CF911F914CCFDDDE8F3F21F48FEF55
:1014E00004C0D1DEFACF888380E0DF91CF911F91D5
:1014F0000895CF93DF93EC0126E030E0AC0160E08B
:1015000079E080E090E019DBAE01425F5F4F24E0BC
:1015100030E060E071E080E090E00FDBAE01465F1C
:101520005F4F24E030E060E075E080E090E005DBB4
:10153000AE014A5F5F4F24E030E060E07FE080E092
:1015400090E0FBDA8A89809376208B8980937720DC
:101550008C89809378208D89809379208E899F89CA
:1015600080937A2090937B20DF91CF910895CF9341
:10157000DF93EC0126E030E0AC0160E079E080E050
:1015800090E087DAAE01425F5F4F24E030E060E038
:1015900071E080E090E07DDAAE01465F5F4F24E0CD
:1015A00030E060E075E080E090E073DAAE014A5F21
:1015B0005F4F24E030E060E07FE080E090E069DAB7
:1015C000809176208A8B809177208B8B80917820F8
:1015D0008C8B809179208D8B80917A2090917B20CB
:1015E0008E8B9F8BDF91CF910895CF93DF93EC018A
:1015F000857C892B61F460E070E0CB01C8D94C2F69
:10160000482B60E070E0CB0103DA80E001C08FEF8F
:10161000DF91CF91089560E070E0CB01B8D990E000
:101620000895CF93DF93EC01488160E07BE180E097
:1016300090E0EED94A8160E079E180E090E0E8D97D
:10164000498160E07AE180E090E0DF91CF91E0C9EC
:101650001F93CF93DF93EC0160E07BE180E090E0AB
:1016600096D9888360E079E180E090E090D9182FE6
:1016700060E07AE180E090E08AD9312F20E0280F05
:10168000311D29833A83DF91CF911F910895CF9324
:10169000DF93EB018230910599F028F4009751F027
:1016A0000197F1F40AC08430910599F070F0059724
:1016B000B9F413C0CB011DDF0EC0CB0158DF0BC046
:1016C00088819981DF91CF9190CFA5DF888399831D
:1016D00002C0CB01A6DF80E004C0CB01B9DFFBCFA5
:1016E0008FEFDF91CF9108958FEF809370008093FB
:1016F00071008093720080937300809374008093D4
:101700007500809376009FB7F894809150008260B6
:10171000809350009FBF8091510081FFFCCF61E01A
:1017200080E490E009D09FB7F894809150008E7FBC
:10173000809350009FBF08951BBEFC0128ED24BF7D
:10174000608308958091CF0187FDFCCF0895CF93EA
:10175000DF93EC01F7DFD05F8881DF91CF910895AF
:10176000F1DF8091CF0181FF07C086E38093CA013A
:1017700061E08BEC91E0E0CF0895CF92DF92FF9291
:101780000F931F93CF93DF931F92CDB7DEB78C01DA
:1017900080ECC82EDD24D394D6011A96FC90698380
:1017A000DFDFD0DFCFDFF801FF27F05F69816083E3
:1017B000F60112821183008385E3828761E08BEC5E
:1017C00091E0BADFD6011A96FC920F90DF91CF918B
:1017D0001F910F91FF90DF90CF9008954091CA0123
:1017E000E62FF72F8093CA0184914093CA01089590
:1017F0006150710981099109D9F70895682F70E046
:1018000082E0ECCFE82FE695E695E69590E2E99F39
:10181000F0011124E05FF94F8770E80FF11D9FB7C9
:10182000F8948081877080838081886180839FBFE6
:1018300008956FEF80E090E0A0DF65E571E483E05C
:1018400090E0D6CF88ED84BF81E080937900089541
:101850000F931F93CF93DF93EC01162F65EA80E07F
:1018600090E08BDF1123C1F0688181E090E085DF9B
:10187000698182E090E081DF6A8183E090E07DDF32
:101880006B8184E090E079DF6C8185E090E075DF2A
:101890006D8186E090E071DF6E8187E090E06DDF22
:1018A0006F8188E090E069DF688589E090E065DF1E
:1018B00069858AE090E061DF6A858BE090E05DDF1A
:1018C0006B858CE090E059DF6C858DE090E055DF12
:1018D0006D858EE090E051DF6E858FE090E04DDF0A
:1018E0006F8580E190E049DF688981E190E045DF24
:1018F000698982E190E041DF6A8983E190E03DDF20
:101900006B8984E190E039DF6C8985E190E035DF17
:101910006D8986E190E031DF6E8987E190E02DDF0F
:1019200007E810E2C8E1D0E0F80161918F01CE0133
:1019300024DF2196C835D105B9F702ED10E2C8E5DC
:10194000D0E0F80161918F01CE0117DF2196C837F1
:10195000D105B9F704C065EA80E090E00EDF80E0D1
:1019600090E0F5DE853AB9F7DF91CF911F910F91A5
:1019700008950F931F93CF93DF93EC0180E090E0E5
:10198000E6DE853A09F079C081E090E0E0DE888308
:1019900082E090E0DCDE898383E090E0D8DE8A8319
:1019A00084E090E0D4DE8B8385E090E0D0DE8C8311
:1019B00086E090E0CCDE8D8387E090E0C8DE8E8309
:1019C00088E090E0C4DE8F8389E090E0C0DE888705
:1019D0008AE090E0BCDE89878BE090E0B8DE8A8701
:1019E0008CE090E0B4DE8B878DE090E0B0DE8C87F9
:1019F0008EE090E0ACDE8D878FE090E0A8DE8E87F1
:101A000080E190E0A4DE8F8781E190E0A0DE888B0A
:101A100082E190E09CDE898B83E190E098DE8A8B06
:101A200084E190E094DE8B8B85E190E090DE8C8BFE
:101A300086E190E08CDE8D8B87E190E088DE8E8BF6
:101A40001F8A07E810E2C8E1D0E0CE0180DEF8018D
:101A500081938F012196C835D105B9F702ED10E2C7
:101A6000C8E5D0E0CE0173DEF80181938F012196A5
:101A7000C837D105B9F780E003C081E080938020AA
:101A8000DF91CF911F910F9108950F931F93CF93E3
:101A9000C82F8B0180E2C89FB0011124685F7C4F82
:101AA000882777FD8095982F0E94C704882331F0FE
:101AB0008232D1F400E010E098011AC020E0A801C1
:101AC00062E08C2F0E948C01082F112707FD1095D2
:101AD000212F312F8C2F90E0A0E0B0E008171907DC
:101AE0002A073B0709F004C001E010E020E030E0E5
:101AF000B801C901CF911F910F9108957F928F92E4
:101B00009F92AF92BF92CF92DF92EF92FF920F938C
:101B10001F93CF93DF93782E6B017A01590148010F
:101B200080E2789EB0011124685F7C4F882777FDA2
:101B30008095982F0E94C7048823D9F0823279F5C6
:101B400012C0A7014C1B5D0BB6016C0F7D1F8501F8
:101B50009401872D0E9463028B019C0197FD23C095
:101B6000C60FD71F02C0C0E0D0E0CE15DF0549F791
:101B700016C020E049E053E062E0872D0E948C010E
:101B8000082F112707FD1095212F312F872D90E069
:101B9000A0E0B0E0081719072A073B0721F401E08D
:101BA00010E020E030E0B801C901DF91CF911F9132
:101BB0000F91FF90EF90DF90CF90BF90AF909F90EC
:101BC0008F907F9008950F931F93CF93DF9300D052
:101BD00000D0CDB7DEB78FEF89838A838B838C8368
:101BE0008093F2201092F3208AEA8093F42080916F
:101BF0008020811103C01092F52003C080E88093FB
:101C0000F520E1E3F0E2A6EFB0E281918D9380E26E
:101C1000E733F807D1F7809137208093FC2080913B
:101C200038208093FD20809139208093FE20809180
:101C30003A208093FF2080913B2080930021809167
:101C40003C208093012180913D208093022180914E
:101C50003E208093032180913F2080930421809136
:101C6000402080930521809141208093062180911E
:101C70004220809307218091432080930821809106
:101C80004420809309218091452080930A218091EE
:101C9000462080930B218091472080930C21E7E818
:101CA000F0E2ADE0B1E281918D9380E2E73CF8078C
:101CB000D1F7E2EDF0E2ADE4B1E281918D9380E203
:101CC000E23FF807D1F7E6EBF1E2ADE6B1E2819150
:101CD0008D9381E2E13CF807D1F7109278211092C0
:101CE000792110927A218FEF80937B2185E5809373
:101CF0007C218E010F5F1F4F2AE033E04BE850E05C
:101D000062EF70E280E0FADE2496CDBFDEBFDF91A5
:101D1000CF911F910F910895CF93E0911720F091EB
:101D20001820E131F10508F0A2C1EA5AFF4F9AC22A
:101D30008F3F09F096C110921720109218208093BF
:101D4000162095C181118DC181E090E0809317200C
:101D5000909318208CC18A3A09F083C182E090E008
:101D6000809317209093182082C180931620809131
:101D70001620813039F080F0823021F0833009F074
:101D800070C10AC083E090E08093172090931820E0
:101D900086E080937D206BC18DE090E080931720DA
:101DA0009093182064C120917D2090917D209150C6
:101DB00090937D20E6E0E21BF0E0E75EFF4D80833C
:101DC00080917D20811153C184E090E080931720A1
:101DD0009093182084E080937D2049C130917D202C
:101DE00090917D20915090937D2024E0E22FE31B81
:101DF000F0E0E75EFF4D868380917D20811137C141
:101E000085E090E0809317209093182020937D2008
:101E10002EC130917D2090917D20915090937D2016
:101E200024E0E22FE31BF0E0E75EFF4D8287809124
:101E30007D2081111CC186E090E080931720909353
:101E4000182020937D2013C130917D2090917D201A
:101E5000915090937D2024E0E22FE31BF0E0E75EB9
:101E6000FF4D868780917D20811101C187E090E040
:101E7000809317209093182020937D20F8C03091F4
:101E80007D2090917D20915090937D2024E0E22F41
:101E9000E31BF0E0E75EFF4D828B80917D20811196
:101EA000E6C088E090E0809317209093182020935C
:101EB0007D20DDC080932F201092302089E090E0BB
:101EC000809317209093182080E480937D20CFC0CA
:101ED00020917D2090917D20915090937D20E0E491
:101EE000E21BF0E0E957FF4D808380917D20811156
:101EF000BEC08AE090E0809317209093182080E283
:101F000080937D20B4C020917D2090917D209150C0
:101F100090937D20E0E2E21BF0E0EE52FF4D8083E3
:101F200080917D208111A3C08BE090E080931720E9
:101F3000909318208BE080937D2099C020917D2084
:101F400090917D20915090937D20EBE0E21BF0E09A
:101F5000E953FF4D808380917D20811188C08CE002
:101F600090E0809317209093182082E080937D204A
:101F70007EC020917D2090917D20915090937D2076
:101F8000E2E0E21BF0E0E258FF4D808380917D208B
:101F900081116DC08DE090E0809317209093182000
:101FA00010927D2064C081115CC08EE090E080932F
:101FB0001720909318205BC08F3F09F052C08FE02C
:101FC00090E0809317209093182051C0853509F038
:101FD00048C080E190E08093172090931820809172
:101FE0001620811101C0EFDD809116208130D1F4DF
:101FF000909131202091192086E0C1E09213C0E039
:102000008150E1F780E090E0A2DB80937C2080911A
:102010007C20853A39F4C13029F460E089E190E20E
:1020200017DC10DC809116208230A1F4E7ECF0E29E
:10203000A6EBB1E281E021919D91291380E090E22D
:10204000E23DF907C1F7813029F461E089E190E2CE
:10205000FFDBF8DB80911620833049F4EADBCF9177
:10206000F1CB80E190E08093172090931820CF91DE
:1020700008950F931F93CF93DF93EC018B01080F0B
:10208000191F02C0899148DEC017D107D9F7DF9127
:10209000CF911F910F910895FF920F931F93CF93AC
:1020A000DF93CDB7DEB72897CDBFDEBFF82E80E235
:1020B000F89EB0011124685F7C4F882777FD8095DA
:1020C000982F4F8358870E94C7044F8158858823D3
:1020D00051F18232E1F58F2D0E944A06009709F4F2
:1020E00036C0AC01853C910510F044EC50E08E0107
:1020F0000B5F1F4F9E012F5F3F4F62EF70E28F2DEE
:102100000E9463038B019C01161617061806190618
:1021100014F5F1101CC082EF90E2ABDF01E010E09B
:1021200020E030E018C020E062E08F2D0E948C019A
:10213000082F112707FD1095212F312F8F2D90E0AB
:10214000A0E0B0E0081719072A073B0721F401E0D7
:1021500010E020E030E0B801C9012896CDBFDEBF15
:10216000DF91CF911F910F91FF90089571D0BCDA4C
:10217000F894109281201092822010928320109265
:10218000842010928520C1E0C093862088E036DB51
:102190008093B62189E032DB8093B7218AE02EDB81
:1021A0008093B8218BE02ADB8093B9218CE026DB79
:1021B0008093BA218DE022DB8093BB2180E11EDB7E
:1021C0008093BC2182E11ADB8093BD2183E116DB81
:1021D0008093BE2184E112DB8093BF2185E10EDB79
:1021E0008093C02188E08093620684E08093620639
:1021F00082E080936206C09362068BE103DB8AE192
:1022000001DB89E1FFDA88E1FDDAC0E2C093010673
:10221000C093050665E573E288E090E0E9DA81E3C2
:1022200090E2A7DB882319F0C093060602C0C09392
:10223000050681E390E20E94E20069E073E080E03D
:1022400024DC49E053E062EF70E280E025DFF9CF63
:10225000E0E0F6E080E2868381838FE0E0E6F6E06E
:1022600085830895EE0FFF1F0590F491E02D0994EA
:04227000F894FFCF10
:1022740000C00102573535303000EF07F007F10791
:10228400F207F307F607FF1000000000000000004B
:102294000000000000000000000000000000000238
:1022A400000008DC000001C0A8017BFFFFFF00C0A4
:1022B400A801010000000001000801010101010161
:0A22C4000108010101010101010000
:00000001FF
