:1000000065C000007FC000007DC000007BC0000014
:1000100079C0000077C0000075C0000073C0000008
:1000200071C000006FC000006DC000006BC0000018
:1000300069C0000067C0000065C0000063C0000028
:1000400061C000005FC000005DC000005BC0000038
:1000500059C0000057C0000055C0000053C0000048
:1000600051C000004FC000004DC000004BC0000058
:1000700049C0000047C0000045C0000043C0000068
:1000800041C000003FC000003DC000003BC0000078
:1000900039C0000037C0000035C0000033C0000088
:1000A0004DC0000080C000002DC000001D0E1F0EBE
:1000B0002F0E2B0E310E350E390E460E5A0E6B0ECC
:1000C0006D0E700E800E730E780E7D0E11241FBE05
:1000D000CFEFCDBFD3E2DEBF10E2A0E0B0E2EEEBA7
:1000E000FFE102C005900D92AC34B107D9F721E2CF
:1000F000ACE4B0E201C01D92AF3FB207E1F7F6D326
:100100000C94DD0FE9C3FC01838122819581821B60
:1001100089232481821779F0838196959823A08181
:10012000B181A90FB11D4C938F5F95818923838382
:1001300080E090E0089581E090E008951F920F9292
:100140000FB60F9211242F933F934F935F936F93AA
:100150007F938F939F93AF93BF93EF93FF93CF932F
:10016000DF931F92CDB7DEB780EC99E084D289830C
:10017000498150E060E070E08DEE90E2C4DF0F90C6
:10018000DF91CF91FF91EF91BF91AF919F918F91AF
:100190007F916F915F914F913F912F910F900FBE83
:1001A0000F901F9018951F920F920FB60F92112467
:1001B0002F933F934F935F936F937F938F939F936F
:1001C000AF93BF93EF93FF939091F6218091F52128
:1001D0009817B1F08091F5212091F821922F9695F2
:1001E0009823E091F321F091F421E90FF11D608152
:1001F0008F5F82238093F52180EC99E034D205C093
:100200008091C2098C7F8093C209FF91EF91BF91C9
:10021000AF919F918F917F916F915F914F913F919E
:100220002F910F900FBE0F901F901895CF93DF93D3
:10023000CDB7DEB72797CDBFDEBF23E02D831E826B
:1002400069837A838B839C834F8360E184E00E947F
:10025000990FBE016F5F7F4F80EC99E0EED2E0E630
:10026000F6E086858061868780E8818380E48283EA
:10027000E0EAF0E087E08283828180688283A0ECFC
:10028000B9E012968C911297806312968C93129714
:1002900082818460828312968C9112978C7F129651
:1002A0008C9382818460828378942796CDBFDEBF51
:1002B000DF91CF9108958F929F92AF92BF92CF928C
:1002C000DF92EF92FF920F931F93CF93DF9300D0B3
:1002D000CDB7DEB7182F84E0189F700111249FEF6F
:1002E000E91AF90A83E0EE0CFF1C8A95E1F7B701E1
:1002F0007D5F882777FD8095982F49835A83D1D7D2
:1003000049815A81833109F480C020F4882309F49B
:1003100085C096C0873161F08C3109F091C0812F82
:1003200073D5682F772767FD7095872F972F8FC01C
:100330006701EEEFDE1AEE24D7FCE094FE2CC70135
:10034000B601AFD780FF08C01092F0201092EF20C6
:1003500041E0C701B601E6D7812F0E94CD0A009780
:1003600009F46EC0AC018138910510F040E850E00E
:100370002091F7218091F6219091F5213091F8217B
:10038000891B8323F22FF81B8F2F90E0841795078A
:1003900068F48091F6219091F521891B8323281B15
:1003A000422F50E04115510509F44AC06CE470E257
:1003B000812F95D66B017C011616170618061906B3
:1003C0000CF045C00CE410E2812C912C5401F80192
:1003D00041918F0150E060E070E083EF91E293DEA5
:1003E000FFEF8F1A9F0AAF0ABF0A8C149D04AE0458
:1003F000BF0469F78091C2098C7F82608093C20933
:1004000061E070E080E090E022C0812FA2D4682FEC
:10041000772767FD7095872F972F19C020E061E03F
:10042000812FC1D3992787FD9095A92FB92FC12E70
:10043000D12CE12CF12C8C159D05AE05BF0529F4BE
:1004400061E070E080E090E002C0BC01CD010F905F
:100450000F90DF91CF911F910F91FF90EF90DF9060
:10046000CF90BF90AF909F908F900895CF92DF92E2
:10047000EF92FF921F93CF93DF93CDB7DEB7C058B3
:10048000D109CDBFDEBF182F80E2189FB001112423
:10049000685F7C4F882777FD8095982F02D787313A
:1004A000B9F5FE01319640E050E0BF019A012F5F9F
:1004B0003F4F9091F0208091EF209817C1F08091EC
:1004C000EF204091F220942F96959823A091ED2053
:1004D000B091EE20A90FB11D9C9191938F5F842361
:1004E0008093EF202038310531F0A901DFCF213092
:1004F000310519F40DC04FE750E0812F00D56B0195
:100500007C0197FF05C0812FE8D2B601C70104C066
:1005100061E070E080E090E0C058DF4FCDBFDEBF0B
:10052000DF91CF911F91FF90EF90DF90CF900895D2
:10053000C82F40E863EF70E28DEE90E226D040E8ED
:1005400063E771E283EF91E220D0EC2FE770E15096
:10055000E73050F4F0E0EE0FFF1FE35CFF4D6081E9
:10056000718180E090E004C060E072EC81E090E096
:10057000C3FB442740F95ADE40E95FE16CE470E2D6
:1005800081E099DE81E072DFF7CFFC0112821382F5
:100590004483440F415045836083718380E090E041
:1005A0000895009709F45EC0811524E0920711F4C4
:1005B00064E055C0803821E0920711F462E04FC03A
:1005C000811521E0920711F461E049C0803823E0F1
:1005D000920711F461E00BC0811522E0920711F43B
:1005E00062E005C0811523E0920719F464E081E020
:1005F00037C0811528E0920711F461E02AC08034E9
:1006000028E0920711F462E024C0803429E09207C8
:1006100011F462E017C0803B28E0920711F464E017
:1006200018C0803E28E0920711F468E012C0803CB8
:1006300028E0920711F460E10CC0803C29E09207A9
:1006400019F460E184E00CC0803824E0920719F4CA
:1006500060E483E005C08036944021F460E880E0E7
:100660000C94990F0895FC01218125FFFCCF608334
:1006700080E090E00895FC01218127FFFCCF80817C
:1006800008958F929F92AF92BF92CF92DF92EF9296
:10069000FF920F931F93CF93DF93EC016A017B01CD
:1006A00048015901B901A801A3E0769567955795CE
:1006B0004795AA95D1F7D901C80116E1B695A79536
:1006C000979587951A95D1F72B8122FD08C07695CD
:1006D000679557954795B695A795979587954C1526
:1006E0005D056E057F0508F49AC0C816D906EA06AE
:1006F000FB0608F494C08B8182FD04C0CC0CDD1C89
:10070000EE1CFF1CC501B401A70196010E94B50FA4
:100710008FEF90E0A0E0B0E019EF281739074A0703
:100720005B0758F0880F991FAA1FBB1F1D3F0CF4D1
:1007300081601F5F173089F74CC017FF4AC0D7018F
:10074000C60103E0880F991FAA1FBB1F0A95D1F7A6
:10075000881A990AAA0ABB0A812F992787FD9095C2
:100760001E3FE4F46DEF7FEF681B790BA501940148
:1007700004C0220F331F441F551F6A95D2F7CA01C8
:10078000B90146015701B694A79497948794680DD0
:10079000791D8A1D9B1DA701960118C09C012D5F24
:1007A0003F4FD701C60104C0880F991FAA1FBB1F66
:1007B0002A95D2F79C01AD01BC01CD019695879594
:1007C00077956795680D791D8A1D9B1D0E94B50F51
:1007D0001DC023E0210FD701C60104C0880F991F57
:1007E000AA1FBB1F2A95D2F79C01AD01BC01CD0108
:1007F0009695879577956795680D791D8A1D9B1D40
:100800000E94B50F2150310941095109832F8F7082
:100810001295107F812B8F832E8381E001C080E0B1
:10082000DF91CF911F910F91FF90EF90DF90CF90CC
:10083000BF90AF909F908F9008950F931F93CF9389
:10084000DF93EC018B01ADDE8C818F738C83F8011B
:1008500084819581892B9681992311F098E001C0BC
:1008600090E0892B8C83F8014081518162817381F2
:1008700000E018E428EE31E0CE0103DF9B819860B0
:100880009B839B8190619B83DF91CF911F910F91FF
:100890000895E82FE695E695E69590E2E99FF00148
:1008A0001124E05FF94F8770E80FF11D9FB7F894AE
:1008B0008081877080838081886180839FBF089555
:1008C00085E593E2A8E0B0E00197A109B10900979E
:1008D000A105B105C9F708951F920F920FB60F92A7
:1008E00011240F900FBE0F901F901895CF93DF9398
:1008F000CDB7DEB76797CDBFDEBF87E1E6E1F0E2B7
:10090000DE01119601900D928A95E1F70E94AB0FDE
:100910000E94710FF8941092F9211092FA2110920E
:10092000FB211092FC211092FD2101E00093FE2199
:1009300088E08093620684E08093620682E0809380
:100940006206009362068BE1A4DF8AE1A2DF89E1FF
:10095000A0DF88E19EDF80E2809301068093050698
:100960001091680613FB112710F910278091680673
:1009700082FF12608091680681FF14608091680692
:1009800080FF18609DDF80E280930506CE0101960E
:1009900060D0812FCDDDFDCF82E0E0E4F6E08583FD
:1009A000089582E0E0E4F6E08683089590E890936D
:1009B000460698E09093460620E838E087FD2093AD
:1009C0004506309345063093460620934606880F29
:1009D0009150A1F780E88093460688E08093460610
:1009E000089580E88093460688E08093460698E064
:1009F00080E028E030E820934506880F40914806C3
:100A000045FD81603093460620934606915099F744
:100A100090E89093460698E0909346060895E0E4A7
:100A2000F6E082E08583818388E0818380E88183AA
:100A300080E282830895F3DF82E0E0E4F6E08583DC
:100A40000895E0E4F6E080E4818390E19283858379
:100A500008950F931F93CF93DF93CDB7DEB76197C0
:100A6000CDBFDEBF8C0180E1EDE2F0E2DE01119648
:100A700001900D928A95E1F7E4DFDDDF6CEC74E024
:100A800081ED94E0ECD666ED74E081EF94E002D75E
:100A9000BE016F5F7F4F81E00E940F0E8F3F91F08C
:100AA000BE016F5E7F4F8FE00E940F0E8F3F61F09F
:100AB000B80180E00E944A0FB80181E00E944A0F0D
:100AC00080E003C082E001C081E06196CDBFDEBF5F
:100AD000DF91CF911F910F910895BF92CF92DF9236
:100AE000EF92FF920F931F93CF93DF93B82E88E07E
:100AF0008B1508F44BC00B2D10E0E80195E0CC0FEE
:100B0000DD1F9A95E1F728966E01D394EE24D7FC69
:100B1000E094FE2C40E1C701B60104D4C701B60140
:100B2000C0D38111FBCFBE017E5F882777FD809502
:100B3000982F4FE1F7D321E030E002C0220F331F9E
:100B4000BA94E2F7209530958091E4209091E520C9
:100B5000822393238093E4209093E520F801EE0F05
:100B6000FF1FEC52FF4D10821182F801E453FF4D3C
:100B700010826E018DEFD81AEE24D7FCE094FE2C83
:100B8000C701B6018ED38111FBCF02C08FEF01C028
:100B900081E0DF91CF911F910F91FF90EF90DF9057
:100BA000CF90BF9008956F927F928F929F92AF9255
:100BB000BF92CF92DF92EF92FF920F931F93CF934A
:100BC000DF931F92CDB7DEB7982E7A01822E28E0F0
:100BD000281708F4A9C0613008F4A8C0633018F0E1
:100BE000643009F0A3C0882D867009F0A1C0882068
:100BF00089F0613019F0623029F00CC0882D8172C3
:100C000049F496C085FE02C087FE92C084FE02C0F1
:100C100087FE8EC0892D698360DFA92CB12C350138
:100C200035E0660C771C3A95E1F7C30108963C0164
:100C3000482D407F6981462BBC01882777FD809530
:100C4000982F70D3E114F10481F4E0900020F0902B
:100C50000120C7010196803FEFEF9E0711F480E06D
:100C600090EC8093002090930120B3017C5F882753
:100C700077FD8095982F4F2D55D3B3017B5F882743
:100C800077FD8095982F4E2D4DD36301D394EE249C
:100C9000D7FCE094FE2C41E0C701B60143D3C70165
:100CA000B601FFD28111FBCF082D017010E0092C95
:100CB00002C0000F111F0A94E2F78091E620909184
:100CC000E720802B912B8093E6209093E72081E012
:100CD00090E0092C02C0880F991F0A94E2F78095D2
:100CE00090952091E4203091E5202823392320930A
:100CF000E4203093E520F501EE0FFF1FEC52FF4D8D
:100D000010821182F501E453FF4D108263012DEF33
:100D1000D21AEE24D7FCE094FE2CC701B601C1D252
:100D20008823D9F3892D05C08FEF03C08BEF01C055
:100D30008AEF0F90DF91CF911F910F91FF90EF906D
:100D4000DF90CF90BF90AF909F908F907F906F90EB
:100D500008958F929F92AF92BF92CF92DF92EF92BF
:100D6000FF92CF93C82F893008F03FC084E0C89F1E
:100D7000600111248FEFC81AD80A43E0CC0CDD1CA7
:100D80004A95E1F7B601882777FD8095982F89D29B
:100D90008F70813061F546018DEF981AAA2497FC77
:100DA000A094BA2CC501B4017CD2833111F5D3943F
:100DB000EE24D7FCE094FE2C42E0C701B601B2D28B
:100DC000C701B6016ED28111FBCFC501B40169D252
:100DD000843149F0C701B60164D28111F6CF8C2F5E
:100DE0007CDE8CEF07C081E005C08FEF03C08BEF86
:100DF00001C08DEFCF91FF90EF90DF90CF90BF902B
:100E0000AF909F908F9008958F929F92AF92BF92D4
:100E1000CF92DF92EF92FF92CF93C82F893008F0E4
:100E20005FC084E0C89F400111248FEF881A980AA0
:100E300063E0880C991C6A95E1F7B401882777FD77
:100E40008095982F2ED28F70813009F04BC06401AD
:100E5000D394EE24D7FCE094FE2C48E0C701B60101
:100E600061D2C701B6011DD28111FBCF81E090E0B4
:100E70000C2E02C0880F991F0A94E2F7AC0140952E
:100E800050952091E4203091E520242335232093B0
:100E9000E4203093E5202091E6203091E7202823BC
:100EA0003923232B09F564018DEFD81AEE24D7FCE2
:100EB000E094FE2C8EEF981AAA2497FCA094BA2CEA
:100EC000C701B601EED1882349F0C501B401E9D1CB
:100ED00083FFF6CF8C2F01DE83EF07C081E005C0D2
:100EE0008FEF03C08BEF01C080E0CF91FF90EF90B8
:100EF000DF90CF90BF90AF909F908F9008952F92EA
:100F00003F924F925F926F927F928F929F92AF9299
:100F1000BF92CF92DF92EF92FF920F931F93CF93E6
:100F2000DF931F92CDB7DEB789831B017A01893029
:100F300008F0AFC094E0899F60011124EFEFCE1A52
:100F4000DE0A73E0CC0CDD1C7A95E1F7B601882748
:100F500077FD8095982FA5D18F70813009F09DC0C5
:100F6000E114F10409F49EC02601FDEF5F1A662426
:100F700057FC6094762CC301B20193D1873119F0EC
:100F80008C3109F094C001E010E0098002C0000F2C
:100F9000111F0A94E2F78091E4209091E5208023CC
:100FA0009123892B59F1C6019E5F4C01AA2497FC1D
:100FB000A094BA2CC501B40174D184FF12C040E1E1
:100FC000C501B401AFD18091E4209091E520980152
:100FD00020953095822393238093E4209093E520FD
:100FE0000DC083FD04C060E070E0CB0164C0898166
:100FF00074DD63EF7FEF8FEF9FEF5DC0B601715E31
:10100000882777FD8095982F4CD1A12CB82EBB0C4A
:10101000BB0CEA14FB0408F4570189816DD27C01F2
:10102000C301B2013ED1873129F08C3119F0898199
:1010300054DD3DC08091E6209091E72080239123EC
:10104000892B21F0EA14FB0420F4CDCFEA14FB0431
:1010500020F3A501B1018981F1D2D394EE24D7FC0C
:10106000E094FE2C40E2C701B6015CD1C701B60195
:1010700018D18111FBCF8091E4209091E520802B45
:10108000912B8093E4209093E520B50180E090E0DF
:1010900012C06FEF7FEFCB010EC06BEF7FEF8FEFD2
:1010A0009FEF09C062EF7FEF8FEF9FEF04C069EF02
:1010B0007FEF8FEF9FEF0F90DF91CF911F910F91F7
:1010C000FF90EF90DF90CF90BF90AF909F908F9068
:1010D0007F906F905F904F903F902F9008952F9248
:1010E0003F924F925F926F927F928F929F92AF92B8
:1010F000BF92CF92DF92EF92FF920F931F93CF9305
:10110000DF93CDB7DEB72697CDBFDEBF982E6983BC
:101110007A831A0128E0281708F4A0C084E0989E7A
:10112000900111242F5F3F4FA3E0220F331FAA9598
:10113000E1F72D833E83B901882777FD8095982FAD
:10114000B0D08F70813009F08DC02114310409F4C2
:101150008EC06D817E81725E882777FD8095982F85
:10116000A0D0882EAA24A394B12C092C02C0AA0CCA
:10117000BB1C0A94E2F7CD80DE809DEFD91AEE24E5
:10118000D7FCE094FE2C4D805E80E1EE5E1A662472
:1011900057FC6094762C892D00D28C01C701B601D2
:1011A00080D0873109F43CC08C3199F501151105C7
:1011B000E9F0E12CF82CFF0CFF0C2E143F0408F48E
:1011C00071010E151F0508F47801A70169817A8164
:1011D000892DB6D28D809E809394AA2497FCA094EA
:1011E000BA2C40E4C501B4019DD02FC0892D84D113
:1011F000AC01C301B2014B835C8353D0282F30E094
:10120000322F2227330F330F4B815C814217530754
:1012100039F4892D62DC69EF7FEF8FEF9FEF2BC0F0
:101220002091E6203091E7202A213B21232B41F019
:101230000115110509F0BDCF60E070E0CB011BC0C6
:101240000115110509F4A7CFB4CFC501B40129D008
:101250008111FBCFB70180E090E00DC06FEF7FEF11
:10126000CB0109C06BEF7FEF8FEF9FEF04C062EF00
:101270007FEF8FEF9FEF2696CDBFDEBFDF91CF913F
:101280001F910F91FF90EF90DF90CF90BF90AF90A4
:101290009F908F907F906F905F904F903F902F9096
:1012A00008950F931F93CF93DF9300D01F92CDB774
:1012B000DEB7E0910A20F0910B206A8379838B835B
:1012C0000995E0910E20F0910F20099504E110E2BC
:1012D000D801ED91FC918B810995D801ED91FC919C
:1012E0007981872F0995D801ED91FC916A81862F2C
:1012F0000995E0911220F09113200995E0911020BA
:10130000F09111208B830995E0910C20F0910D2034
:1013100009958B812396CDBFDEBFDF91CF911F91C1
:101320000F9108950F931F93CF93DF9300D000D0B8
:10133000CDB7DEB7E0910A20F0910B204C836B8390
:101340007A8389830995E0910E20F0910F20099509
:1013500004E110E2D801ED91FC9189810995D80151
:10136000ED91FC917A81872F0995D801ED91FC913F
:101370006B81862F84600995D801ED91FC914C8199
:10138000842F0995E0911020F09111200995E091AA
:101390000C20F0910D202496CDBFDEBFDF91CF91C0
:1013A0001F910F910994EF92FF920F931F93CF9388
:1013B000DF93CDB7DEB72597CDBFDEBF8901E091C2
:1013C0000A20F0910B204C835D836B837A838983A1
:1013D0000995E0910E20F0910F200995E0911420DD
:1013E000F091152089810995E0911420F091152044
:1013F0007A81872F0995E0911420F09115206B8157
:10140000862F09954C81E42E5D81F52E0E0D1F1D52
:10141000E016F10649F0E0911220F09113200995B1
:10142000D7018D937D01F4CFE0911020F091112030
:101430000995E0910C20F0910D202596CDBFDEBFDF
:10144000DF91CF911F910F91FF90EF900994EF9250
:10145000FF920F931F93CF93DF93CDB7DEB72597FE
:10146000CDBFDEBF8901E0910A20F0910B204C83B3
:101470005D836B837A8389830995E0910E20F091D7
:101480000F200995E0911420F0911520898109958C
:10149000E0911420F09115207A81872F0995E09131
:1014A0001420F09115206B81862F846009954C8162
:1014B000E42E5D81F52E0E0D1F1DE016F10649F09C
:1014C000E0911420F0911520D7018D917D010995AF
:1014D000F4CFE0911020F09111200995E0910C20BB
:1014E000F0910D202596CDBFDEBFDF91CF911F91EA
:1014F0000F91FF90EF9009948F929F92AF92BF92BD
:10150000CF92DF92EF92FF920F931F93CF93DF93CF
:1015100024E0829FC0011124019623E0880F991FC7
:101520002A95E1F76C0120EED21AEE24D7FCE09464
:10153000FE2C4C012FED921AAA2497FCA094BA2CF1
:1015400000E010E0C701B601ACDEC82FD0E0DC2F10
:10155000CC27C501B401A5DEC80FD11D209761F0CD
:10156000C701B6019EDE082F10E0102F0027C5012D
:10157000B40197DE080F111D0C171D0719F7C801DC
:10158000DF91CF911F910F91FF90EF90DF90CF905F
:10159000BF90AF909F908F9008958F929F92AF923F
:1015A000BF92CF92DF92EF92FF920F931F93CF9350
:1015B000DF9324E0829FC0011124019653E0880F3D
:1015C000991F5A95E1F76C012AEDD21AEE24D7FC47
:1015D000E094FE2C4C0129ED921AAA2497FCA094C9
:1015E000BA2C00E010E0C701B6015BDEC82FD0E0E6
:1015F000DC2FCC27C501B40154DEC80FD11D2097C4
:1016000061F0C701B6014DDE082F10E0102F002752
:10161000C501B40146DE080F111D0C171D0719F78F
:10162000C801DF91CF911F910F91FF90EF90DF9054
:10163000CF90BF90AF909F908F9008954F925F9200
:101640006F927F928F929F92AF92BF92CF92DF92D2
:10165000EF92FF920F931F93CF93DF934B018A0179
:101660004115510509F45BC024E0829F500111240B
:1016700065018FEFC81AD80A63E0CC0CDD1C6A95AF
:10168000E1F726019CED591A662457FC6094762CEC
:10169000C301B20106DEC82F2BEDD21AEE24D7FC0F
:1016A000E094FE2CC701B601FCDDD0E0DC2FCC2796
:1016B000C80FD11DCE01A0E0B0E06627782F892F9A
:1016C0009A2F22E0A20EB11CF3E0AA0CBB1CFA95E3
:1016D000E1F79501442737FD4095542F620F731FA2
:1016E000841F951F9801A401B2DEC00FD11F4D2F9A
:1016F000C301B20117DE4C2FC701B601DF91CF91B4
:101700001F910F91FF90EF90DF90CF90BF90AF901F
:101710009F908F907F906F905F904F9003CEDF915E
:10172000CF911F910F91FF90EF90DF90CF90BF90DE
:10173000AF909F908F907F906F905F904F900895A3
:101740004F925F926F927F928F929F92AF92BF92D1
:10175000CF92DF92EF92FF920F931F93CF93DF937D
:101760004B018A014115510509F45BC024E0829FB9
:101770005001112465018FEFC81AD80AA3E0CC0CE0
:10178000DD1CAA95E1F7260198ED591A662457FC4D
:101790006094762CC301B20184DDC82F27EDD21AE4
:1017A000EE24D7FCE094FE2CC701B6017ADDD0E030
:1017B000DC2FCC27C80FD11DCE01A0E0B0E06627FA
:1017C000782F892F9A2F23E0A20EB11C33E0AA0CA8
:1017D000BB1C3A95E1F79501442737FD4095542FFE
:1017E000620F731F841F951F9801A401DCDDC00FD9
:1017F000D11F4D2FC301B20195DD4C2FC701B6019A
:10180000DF91CF911F910F91FF90EF90DF90CF90DC
:10181000BF90AF909F908F907F906F905F904F9010
:1018200081CDDF91CF911F910F91FF90EF90DF90CD
:10183000CF90BF90AF909F908F907F906F905F9070
:101840004F9008950895089508950895FB018081AB
:101850000895FB014083089580E00895089500975E
:1018600019F06115710569F484E29CE080930E2003
:1018700090930F2085E29CE080931020909311209C
:10188000089580930E2090930F2060931020709302
:1018900011200895209102203091032031FFFFCFC5
:1018A000009719F06115710569F48CE29CE0809352
:1018B0001220909313208EE29CE08093142090934A
:1018C0001520089580931220909313206093142084
:1018D000709315200895CF93DF93CDB7DEB762974D
:1018E000CDBFDEBF26E030E0AE014F5F5F4F60E06E
:1018F00079E080E090E057DD24E030E0AE01415F28
:101900005F4F60E071E080E090E04DDD24E030E08A
:10191000AE01455F5F4F60E075E080E090E043DD41
:1019200024E030E0AE01495F5F4F60E07FE080E09F
:1019300090E039DD40E860E070E0CB01F3DC60E08E
:1019400070E0CB01AEDC26E030E0AE014F5F5F4FD0
:1019500060E079E080E090E07ADD24E030E0AE0104
:10196000415F5F4F60E071E080E090E070DD24E077
:1019700030E0AE01455F5F4F60E075E080E090E0F1
:1019800066DD24E030E0AE01495F5F4F60E07FE05C
:1019900080E090E05CDD6296CDBFDEBFDF91CF914D
:1019A0000895EF92FF920F931F93CF93DF93EC0173
:1019B0008B0191DF209721F40115110519F541C024
:1019C000FE0198E080E02191820F9150E1F7813192
:1019D00014F08FEF37C07E01C1E0D0E0F7014191F4
:1019E0007F01BE0193E0660F771F9A95E1F7715E64
:1019F000882777FD8095982F95DC2496C132D105F4
:101A000069F7DACFF80180E090E02191820F9F5FC3
:101A10009830D9F78131ECF6C1E0D0E0F80141917E
:101A20008F01BE0183E0660F771F8A95E1F7725E32
:101A3000882777FD8095982F75DC2496C132D105D3
:101A400069F780E0DF91CF911F910F91FF90EF90A8
:101A50000895CF93C92F482F407F60E075E180E063
:101A600090E060DC4C2F60E077E180E090E0CF9187
:101A700059CCCF9360E075E180E090E012DCC82F94
:101A800060E077E180E090E00CDC282F30E0922FDE
:101A90008827C07F8C0F911DCF910895CF93C92FB8
:101AA000482F60E076E180E090E03CDC4C2F60E085
:101AB00078E180E090E0CF9135CCCF9360E076E1A3
:101AC00080E090E0EEDBC82F60E078E180E090E01D
:101AD000E8DB282F30E0922F88278C0F911DCF91C3
:101AE000089560E07EE280E090E0DBDB81700895A5
:101AF00060E07EE280E090E0D4DB982F907381E09C
:101B000009F480E0089560E07EE280E090E0C9DBC7
:101B1000482F4F7760E07EE280E090E003DC60E0F9
:101B20007EE280E090E0BDDB482F406860E07EE22E
:101B300080E090E0F7CBFC018081813011F440E43B
:101B400001C040E08181813011F448630DC0938170
:101B50008281913031F4813011F4486105C04860D0
:101B600003C0813009F4406160E07EE280E090E0F3
:101B7000D9DBC9CFCF93DF93EC0160E07EE280E058
:101B800090E08FDB86FB992790F9988388738032E9
:101B900011F0883319F491E0998301C019828831DA
:101BA00021F0803211F0803119F491E09A8301C064
:101BB0001A82883121F0803211F0883019F481E0E6
:101BC0008B8301C01B82DF91CF910895CF93C82FE3
:101BD00060E07EE280E090E064DB86FF1DC0482F7D
:101BE000477CC13011F4406301C0486360E07EE28D
:101BF00080E090E097DB87DF60E07EE280E090E0CD
:101C000050DB982FC13011F4907301C0987381E0BC
:101C1000911180E0819501C08FEFCF9108951F93BE
:101C2000CF93DF93EB01482F50E04031510508F08E
:101C300062C0FA01EA5AFF4FBAC14DDE61C0209777
:101C400019F0685F7F4F02C060E070E0CE01DF9165
:101C5000CF911F91A6CE88819981FBDE51C009DF0B
:101C600005C0888199811ADF4BC027DF888399835B
:101C700047C0498160E073E180E090E053DB488138
:101C800060E074E180E090E04DDB3AC060E073E139
:101C900080E090E006DB182F60E074E180E090E0E7
:101CA00000DB212F30E0322F2227280F311D28831F
:101CB000398326C080910420888380910520898300
:101CC000809106208A83809107208B838091082051
:101CD0008C831D8215C017DF13C0CB012CDF10C011
:101CE000CB0148DF0DC08881DF91CF911F916ECF6E
:101CF000FFDE8F3F21F48FEF04C0F3DEFACF88833D
:101D000080E0DF91CF911F910895CF93DF93EC0195
:101D100026E030E0AC0160E079E080E090E097DB25
:101D2000AE01425F5F4F24E030E060E071E080E0B0
:101D300090E08DDBAE01465F5F4F24E030E060E075
:101D400075E080E090E083DBAE014A5F5F4F24E006
:101D500030E060E07FE080E090E079DB8A8980938A
:101D6000E9208B898093EA208C898093EB208D89F0
:101D70008093EC208E898093E820DF91CF910895A5
:101D8000CF93DF93EC0126E030E0AC0160E079E036
:101D900080E090E008DBAE01425F5F4F24E030E07E
:101DA00060E071E080E090E0FEDAAE01465F5F4FF8
:101DB00024E030E060E075E080E090E0F4DAAE012D
:101DC0004A5F5F4F24E030E060E07FE080E090E039
:101DD000EADA8091E9208A8B8091EA208B8B8091CE
:101DE000EB208C8B8091EC208D8B8091E8208E8B6A
:101DF000DF91CF910895CF93C82F857C61F460E087
:101E000070E0CB014EDA482F4C2B60E070E0CB0144
:101E100089DA80E001C08FEFCF91089560E070E033
:101E2000CB013FCACF93DF93EC01488160E07BE1B7
:101E300080E090E077DA4A8160E079E180E090E04C
:101E400071DA498160E07AE180E090E0DF91CF9142
:101E500069CA1F93CF93DF93EC0160E07BE180E0E0
:101E600090E01FDA888360E079E180E090E019DAA1
:101E7000182F60E07AE180E090E013DA212F30E063
:101E8000322F2227280F311D29833A83DF91CF91EA
:101E90001F910895CF93DF93EB01823099F038F4CE
:101EA000882369F08130C9F4CB016ADF14C0843023
:101EB00081F060F0853089F4CB01CBDF0CC0CB0121
:101EC00024DF09C08881DF91CF9195CFA7DF888378
:101ED00002C0CB01A7DF80E001C08FEFDF91CF917F
:101EE00008958FEF8093700080937100809372004B
:101EF00080937300809374008093750080937600C4
:101F00009FB7F894809150008260809350009FBFEB
:101F10008091510081FFFCCF61E080E490E015D01A
:101F20009FB7F894809150008E7F809350009FBFA0
:101F300008959FB7F894E82FF0E0E059FF4F6095BF
:101F40008081862380839FBF08951BBEFC0128EDFE
:101F500024BF60830895E0E0F6E080E28683818319
:101F60008FE0E0E6F6E085830895A1E21A2EAA1B31
:101F7000BB1BFD010DC0AA1FBB1FEE1FFF1FA21739
:101F8000B307E407F50720F0A21BB30BE40BF50B36
:101F9000661F771F881F991F1A9469F760957095BF
:101FA000809590959B01AC01BD01CF010895EE0F86
:0E1FB000FF1F0590F491E02D0994F894FFCFE7
:101FBE0000C00102573535303000220C230C240CA2
:101FCE00250C260C290C0008DC000001C0A8017BA2
:101FDE00FFFFFF00C0A80101000000000102020285
:101FEE000202020202020202020202020200E100E8
:0C1FFE0096004B8025C0126009B0040062
:00000001FF
