S017000057353530305F5765625365727665722E73726563F8
S113000055C000006EC000006CC000006AC0000053
S113001068C0000066C0000064C0000062C0000048
S113002060C000005EC000005CC000005AC0000058
S113003058C0000056C0000054C0000052C0000068
S113004050C000004EC000004CC000004AC0000078
S113005048C0000046C0000044C0000042C0000088
S113006040C000003EC000003CC000003AC0000098
S113007038C0000036C0000034C0000032C00000A8
S113008030C000002EC000002CC000002AC00000B8
S113009028C0000026C0000024C0000022C00000C8
S11300A020C000001EC000001CC0000011241FBEA0
S11300B0CFEFD3E2DEBFCDBF10E2A0E0B0E2E0E8D4
S11300C0FCE002C005900D92AC33B107D9F720E2F1
S11300D0ACE3B0E201C01D92A734B207E1F785D5C5
S11300E0CDC58ECF82E0E0E4F6E08583089582E01A
S11300F0E0E4F6E08683089590E89093460698E05D
S11301009093460620E838E087FD20934506309317
S113011045063093460620934606880F9150A1F772
S113012080E88093460688E080934606089580E838
S11301308093460688E08093460698E080E028E0B5
S113014030E820934506880F4091480645FD8160BC
S11301503093460620934606915099F790E8909381
S1130160460698E0909346060895E0E4F6E082E0BF
S11301708583818388E0818380E8818380E2828330
S11301800895F3DF82E0E0E4F6E085830895E0E497
S1130190F6E080E4818390E19283858308950F9350
S11301A01F93CF93DF93CDB7DEB76197CDBFDEBF8B
S11301B08C0180E1E4E1F0E2DE01119601900D9200
S11301C08A95E1F7E4DFDDDF62E770E087E790E03E
S11301D05ED16CE770E087E990E074D1BE016F5F97
S11301E07F4F81E037D38F3F79F0BE016F5E7F4F41
S11301F08FE030D38F3F51F0B80180E07FD4B80155
S113020081E07CD480E003C082E001C081E061969B
S1130210CDBFDEBFDF91CF911F910F9108950F9352
S11302201F93CF93DF9300D01F92CDB7DEB7E09139
S11302300820F09109206A8379838B830995E091E2
S11302400C20F0910D20099502E110E2D801ED9106
S1130250FC918B810995D801ED91FC917981872FCF
S11302600995D801ED91FC916A81862F0995E09159
S11302701020F09111200995E0910E20F0910F20AB
S11302808B830995E0910A20F0910B2009958B81CD
S11302902396CDBFDEBFDF91CF911F910F910895BB
S11302A00F931F93CF93DF9300D000D0CDB7DEB769
S11302B0E0910820F09109204C836B837A83898331
S11302C00995E0910C20F0910D20099502E110E2CE
S11302D0D801ED91FC9189810995D801ED91FC91AA
S11302E07A81872F0995D801ED91FC916B81862F36
S11302F084600995D801ED91FC914C81842F099576
S1130300E0910E20F0910F200995E0910A20F091E0
S11303100B202496CDBFDEBFDF91CF911F910F91AB
S11303200994EF92FF920F931F93CF93DF93CDB76E
S1130330DEB72597CDBFDEBF8901E0910820F0919B
S113034009204C835D836B837A8389830995E091CB
S11303500C20F0910D200995E0911220F0911320CA
S113036089810995E0911220F09113207A81872FD9
S11303700995E0911220F09113206B81862F099545
S11303804C81E42E5D81F52E0E0D1F1D08C0E091F9
S11303901020F09111200995D7018D937D01E0166D
S11303A0F106A9F7E0910E20F0910F200995E09154
S11303B00A20F0910B202596CDBFDEBFDF91CF91AF
S11303C01F910F91FF90EF900994EF92FF920F937A
S11303D01F93CF93DF93CDB7DEB72597CDBFDEBF95
S11303E08901E0910820F09109204C835D836B839F
S11303F07A8389830995E0910C20F0910D20099569
S1130400E0911220F091132089810995E091122046
S1130410F09113207A81872F0995E0911220F091B1
S113042013206B81862F846009954C81E42E5D81B5
S1130430F52E0E0D1F1D08C0E0911220F09113201F
S1130440D7018D917D010995E016F106A9F7E09198
S11304500E20F0910F200995E0910A20F0910B20D5
S11304602596CDBFDEBFDF91CF911F910F91FF90F5
S1130470EF9009940895089508950895FB018081EB
S11304800895FB014083089580E00895089500973E
S113049019F06115710569F48CE392E080930C20E6
S11304A090930D208DE392E080930E2090930F2083
S11304B0089580930C2090930D2060930E207093E8
S11304C00F200895209100203091012031FF1BC09E
S11304D0009719F06115710569F484E492E0809342
S11304E010209093112086E492E080931220909340
S11304F0132008958093102090931120609312206C
S1130500709313200895FFCFCF93DF93CDB7DEB759
S11305106297CDBFDEBF26E030E0AE014F5F5F4F94
S113052060E079E080E090E0FCDE24E030E0AE01C1
S1130530415F5F4F60E071E080E090E0F2DE24E034
S113054030E0AE01455F5F4F60E075E080E090E031
S1130550E8DE24E030E0AE01495F5F4F60E07FE019
S113056080E090E0DEDE40E860E070E0CB0198DE01
S113057060E070E0CB0153DE26E030E0AE014F5F77
S11305805F4F60E079E080E090E01FDF24E030E03E
S1130590AE01415F5F4F60E071E080E090E015DF05
S11305A024E030E0AE01455F5F4F60E075E080E03D
S11305B090E00BDF24E030E0AE01495F5F4F60E084
S11305C07FE080E090E001DF6296CDBFDEBFDF9187
S11305D0CF910895EF92FF920F931F93CF93DF93E0
S11305E07C018B0191DFE114F10421F40115110563
S11305F029F522C0F70180E090E02191820F9F5FEE
S11306009830D9F7813114F08FEF38C0C1E0D0E0D1
S1130610F70141917F01BE0193E0660F771F9A9520
S1130620E1F7715E882777FD8095982F39DE24964F
S1130630C132D10569F7DACF80E020C0F80180E04B
S113064090E02191820F9F5F9830D9F78131E4F6D1
S1130650C1E0D0E0F80141918F01BE0183E0660F53
S1130660771F8A95E1F7725E882777FD8095982F2A
S113067017DE2496C132D10569F7DECFDF91CF9121
S11306801F910F91FF90EF900895CF93DF93EC01AA
S1130690AC01407F552760E075E180E090E000DE2A
S11306A04D2F60E077E180E090E0DF91CF91F8CDCD
S11306B0CF9360E075E180E090E0B1DDC82F60E0A9
S11306C077E180E090E0ABDD382F20E0C07F2C0F95
S11306D0311DC901CF910895CF93C92F482F60E0F0
S11306E076E180E090E0DCDD4C2F60E078E180E0B2
S11306F090E0CF91D5CDCF9360E076E180E090E0BB
S11307008EDDC82F60E078E180E090E088DD382F4E
S113071020E02C0F311DC901CF91089560E07EE2E5
S113072080E090E07CDD8170089560E07EE280E00E
S113073090E075DD982F907381E009F480E00895CE
S113074060E07EE280E090E06ADD482F4F7760E071
S11307507EE280E090E0A4DD60E07EE280E090E074
S11307605EDD482F406860E07EE280E090E098CD56
S1130770FC018081813011F440E401C040E08181BA
S1130780813011F448630DC093818281913031F43A
S1130790813011F4486105C0486003C0813009F418
S11307A0406160E07EE280E090E07ADDC9CFCF93E3
S11307B0DF93EC0160E07EE280E090E030DD86FBD8
S11307C0992790F998838873803211F0883319F44B
S11307D091E0998301C01982883121F0803211F0AF
S11307E0803119F491E09A8301C01A82883121F092
S11307F0803211F0883019F481E08B8301C01B82B0
S1130800DF91CF910895CF93C82F60E07EE280E01E
S113081090E005DD86FD02C08FEF1AC0482F477CAB
S1130820C13011F4406301C0486360E07EE280E0BF
S113083090E036DD85DF60E07EE280E090E0EFDC92
S1130840C13011F4807301C08873882329F380E0D8
S1130850CF9108951F93CF93DF93EB01873009F471
S11308604DC058F4833079F120F48130F1F078F5FB
S11308701AC0853091F1A8F52CC08B3009F466C0FC
S113088030F4893009F45DC008F05DC049C08D3092
S113089009F45FC008F46AC08E3009F45FC08F3079
S11308A009F461C05EC030DE61C0209721F0685F4A
S11308B07F4FCE0104C060E070E080E090E0DF9103
S11308C0CF911F9187CE88819981DFDE4FC0F0DE02
S11308D005C08881998100DF49C00DDF8883998331
S11308E045C0498160E073E180E090E0D9DC488153
S11308F060E074E180E090E0D3DC38C060E073E154
S113090080E090E08CDC182F60E074E180E090E0FF
S113091086DC312F20E0280F311D2883398326C03F
S11309208091022088838091032089838091042010
S11309308A83809105208B83809106208C831D827D
S113094015C0FEDE13C0CB0113DF10C0CB012FDFB7
S11309500DC08881DF91CF911F9155CFE6DE8F3F87
S113096021F48FEF04C0DADEFACF888380E0DF91D0
S1130970CF911F910895CF93DF93EC0126E030E0EF
S1130980AC0160E079E080E090E01FDDAE01425F01
S11309905F4F24E030E060E071E080E090E015DD3E
S11309A0AE01465F5F4F24E030E060E075E080E038
S11309B090E00BDDAE014A5F5F4F24E030E060E081
S11309C07FE080E090E001DD8A8980933C208B8980
S11309D080933D208C8980933E208D8980933F2095
S11309E08E8980934020DF91CF910895CF93DF9338
S11309F0EC0126E030E0AC0160E079E080E090E0DA
S1130A0090DCAE01425F5F4F24E030E060E071E0D3
S1130A1080E090E086DCAE01465F5F4F24E030E08A
S1130A2060E075E080E090E07CDCAE014A5F5F4FFF
S1130A3024E030E060E07FE080E090E072DC8091D0
S1130A403C208A8B80913D208B8B80913E208C8B27
S1130A5080913F208D8B809140208E8BDF91CF91B0
S1130A600895CF93C82F857C61F460E070E0CB01DA
S1130A70D6DB482F4C2B60E070E0CB0111DC80E02A
S1130A8001C08FEFCF91089560E070E0CB01C7CB38
S1130A90CF93DF93EC01488160E07BE180E090E05C
S1130AA0FFDB4A8160E079E180E090E0F9DB498195
S1130AB060E07AE180E090E0DF91CF91F1CB1F9389
S1130AC0CF93DF93EC0160E07BE180E090E0A7DB73
S1130AD0888360E079E180E090E0A1DB182F60E09A
S1130AE07AE180E090E09BDB312F20E0280F311D7C
S1130AF029833A83DF91CF911F910895CF93DF9398
S1130B00EB01823091F028F4882349F08130D9F444
S1130B1009C0843089F068F08530A9F411C0CB0194
S1130B202ADF0CC0CB0162DF09C08881DF91CF913D
S1130B3098CFAADF888302C0CB01AADF80E004C07B
S1130B40CB01BDDFFBCF8FEFDF91CF9108958FEF06
S1130B50809370008093710080937200809373007F
S1130B608093740080937500809376009FB7F89407
S1130B70809150008260809350009FBF809151000B
S1130B8081FFFCCF61E080E490E009D09FB7F89446
S1130B90809150008E7F809350009FBF08951BBEAC
S1130BA0FC0128ED24BF60830895E82FE695E695BF
S1130BB0E69590E2E99FF0011124E05FF94F877018
S1130BC0E80FF11D9FB7F89480818770808380813E
S1130BD0886180839FBF089585E593E2A8E0B0E033
S1130BE00197A109B109E1F70895CF93DF93CDB738
S1130BF0DEB76797CDBFDEBF87E1E4E2F0E2DE0156
S1130C00119601900D928A95E1F72ED0A0DFF89409
S1130C1010924120109242201092432010924420BE
S1130C201092452081E08093462098E090936206DC
S1130C3094E09093620692E0909362068093620639
S1130C408BE1B3DF8AE1B1DF89E1AFDF88E1ADDFBA
S1130C5010E21093010610930506BEDF10930506FB
S1130C60CE0101969CDAFFCFE0E0F6E080E28683D5
S1130C7081838FE0E0E6F6E085830895F894FFCF62
S1130C8001025735353030003A023B023C023D0246
S1130C903E024102020202020202020202020202B5
S1130CA0020202020008DC000001C0A8017BFFFF71
S10F0CB0FF00C0A80101000000000100CA
S9030000FC
