S018000057353530305F426172655F4D6574616C2E73726563C0
S113000065C000007EC000007CC000007AC0000013
S113001078C0000076C0000074C0000072C0000008
S113002070C000006EC000006CC000006AC0000018
S113003068C0000066C0000064C0000062C0000028
S113004060C000005EC000005CC000005AC0000038
S113005058C0000056C0000054C0000052C0000048
S113006050C000004EC000004CC000004AC0000058
S113007048C0000046C0000044C0000042C0000068
S113008040C000003EC000003CC000003AC0000078
S113009038C0000036C0000034C0000032C0000088
S11300A031C000002EC000002CC000007606780687
S11300B0880684068A068E0692069F06B306C40640
S11300C0C606C906D906CC06D106D60611241FBE1B
S11300D0CFEFCDBFD3E2DEBF10E2A0E0B0E2E0E7B5
S11300E0F0E102C005900D92A234B107D9F720E2E5
S11300F0A2E4B0E201C01D92AD34B207E1F7F3D13E
S1130100B5C7E7C11F920F920FB60F9211242F9318
S11301103F934F935F936F937F938F939F93AF938B
S1130120BF93EF93FF9380EC99E0A5D0682F80EC08
S113013099E099D0FF91EF91BF91AF919F918F91E9
S11301407F916F915F914F913F912F910F900FBECF
S11301500F901F90189560E184E044D760E070E24E
S113016080EC99E067D1E0E6F6E0868580618687D9
S113017080E8818380E48283E0EAF0E087E08283A0
S1130180828180688283A0ECB9E012968C911297E8
S1130190806312968C93828184608283789408951C
S11301A0DADFFFCF009709F45DC0811524E09207E0
S11301B011F464E055C0803821E0920711F462E044
S11301C04FC0811521E0920711F461E049C08038E5
S11301D023E0920711F461E00BC0811522E092073D
S11301E011F462E005C0811523E0920719F464E07C
S11301F081E037C0811528E0920711F461E02AC03C
S1130200803428E0920711F462E024C0803429E0AD
S1130210920711F462E017C0803B28E0920711F4C2
S113022064E018C0803E28E0920711F468E012C030
S1130230803C28E0920711F460E10CC0803C29E086
S1130240920719F460E184E00CC0803824E092073E
S113025019F460E483E005C08036944019F460E842
S113026080E0C0C60895FC01218125FFFCCF608396
S113027080E090E00895FC01218127FFFCCF80817C
S113028008958F929F92AF92BF92CF92DF92EF9296
S1130290FF920F931F93CF93DF93EC016A017B01CD
S11302A048015901B901A801A3E0769567955795CE
S11302B04795AA95D1F7D901C80116E1B695A79536
S11302C0979587951A95D1F72B8122FD08C07695CD
S11302D0679557954795B695A795979587954C1526
S11302E05D056E057F0508F497C0C816D906EA06B1
S11302F0FB0608F491C08B8182FD04C0CC0CDD1C8C
S1130300EE1CFF1CC501B401A701960187D68FEF2F
S113031090E0A0E0B0E019EF281739074A075B071F
S113032058F0880F991FAA1FBB1F1D3F0CF4816052
S11303301F5F173089F74BC017FF49C0D701C601AB
S113034003E0880F991FAA1FBB1F0A95D1F7881ACB
S1130350990AAA0ABB0A812F992787FD90951E3F07
S1130360E4F46DEF7FEF681B790BA501940104C0E1
S1130370220F331F441F551F6A95D2F7CA01B901D2
S113038046015701B694A79497948794680D791DF4
S11303908A1D9B1DA701960118C09C012D5F3F4F2C
S11303A0D701C60104C0880F991FAA1FBB1F2A9535
S11303B0D2F79C01AD01BC01CD0196958795779547
S11303C06795680D791D8A1D9B1D28D61CC023E0E6
S11303D0210FD701C60104C0880F991FAA1FBB1F94
S11303E02A95D2F79C01AD01BC01CD019695879564
S11303F077956795680D791D8A1D9B1D0FD6215031
S1130400310941095109832F8F701295107F812B77
S11304108F832E8381E001C080E0DF91CF911F9113
S11304200F91FF90EF90DF90CF90BF90AF909F908F
S11304308F9008950F931F93CF93DF93EC018B015B
S1130440B1DE8C818F738C83F80184819581892B33
S11304509681992311F098E001C090E0892B8C8358
S1130460F801408151816281738100E018E428EE33
S113047031E0CE0106DF9B8198609B839B81906174
S11304809B83DF91CF911F910F910895E82FE695FB
S1130490E695E69590E2E99FF0011124E05FF94FBB
S11304A08770E80FF11D9FB7F8948081877080836F
S11304B08081886180839FBF089585E593E2A8E0E9
S11304C0B0E00197A109B1090097A105B105C9F7E9
S11304D008951F920F920FB60F9211240F900FBE22
S11304E00F901F901895CF93DF93CDB7DEB7679722
S11304F0CDBFDEBF87E1EBE1F0E2DE0111960190B2
S11305000D928A95E1F780D545D5F894109247204D
S1130510109248201092492010924A2010924B20A9
S113052081E080934C2098E09093620694E090934D
S1130530620692E090936206809362068BE1A6DFE6
S11305408AE1A4DF89E1A2DF88E1A0DF10E2109351
S1130550010610930506B1DF10930506CE0101963E
S11305605FD01EDEFECF82E0E0E4F6E085830895EE
S113057082E0E0E4F6E08683089590E890934606EE
S113058098E09093460620E838E087FD20934506DE
S1130590309345063093460620934606880F9150C3
S11305A0A1F780E88093460688E080934606089584
S11305B080E88093460688E08093460698E080E0D1
S11305C028E030E820934506880F4091480645FD11
S11305D081603093460620934606915099F790E83F
S11305E09093460698E0909346060895E0E4F6E07A
S11305F082E08583818388E0818380E8818380E24F
S113060082830895F3DF82E0E0E4F6E085830895D1
S1130610E0E4F6E080E4818390E1928385830895A9
S11306200F931F93CF93DF93CDB7DEB76197CDBF01
S1130630DEBF8C0180E1E2E3F0E2DE01119601907D
S11306400D928A95E1F7E4DFDDDF63EB72E088EB7E
S113065092E05ED16DEB72E088ED92E074D1BE0160
S11306606F5F7F4F81E034D38F3F79F0BE016F5EBF
S11306707F4F8FE02DD38F3F51F0B80180E063D4DA
S1130680B80181E060D480E003C082E001C081E071
S11306906196CDBFDEBFDF91CF911F910F91089579
S11306A00F931F93CF93DF9300D01F92CDB7DEB784
S11306B0E0910F20F09110206A8379838B83099550
S11306C0E0911320F0911420099509E110E2D8017A
S11306D0ED91FC918B810995D801ED91FC91798183
S11306E0872F0995D801ED91FC916A81862F099590
S11306F0E0911720F09118200995E0911520F091D0
S113070016208B830995E0911120F0911220099510
S11307108B812396CDBFDEBFDF91CF911F910F91C7
S113072008950F931F93CF93DF9300D000D0CDB7DC
S1130730DEB7E0910F20F09110204C836B837A8315
S113074089830995E0911320F0911420099509E11A
S113075010E2D801ED91FC9189810995D801ED91C0
S1130760FC917A81872F0995D801ED91FC916B81D9
S1130770862F84600995D801ED91FC914C81842FDA
S11307800995E0911520F09116200995E09111202A
S1130790F09112202496CDBFDEBFDF91CF911F913F
S11307A00F910994EF92FF920F931F93CF93DF93CE
S11307B0CDB7DEB72597CDBFDEBF8901E0910F200D
S11307C0F09110204C835D836B837A838983099530
S11307D0E0911320F09114200995E0911920F091F3
S11307E01A2089810995E0911920F0911A207A81C3
S11307F0872F0995E0911920F0911A206B81862F9B
S113080009954C81E42E5D81F52E0E0D1F1DE01619
S1130810F10649F0E0911720F09118200995D701CD
S11308208D937D01F4CFE0911520F0911620099568
S1130830E0911120F09112202596CDBFDEBFDF910B
S1130840CF911F910F91FF90EF900994EF92FF9237
S11308500F931F93CF93DF93CDB7DEB72597CDBF0B
S1130860DEBF8901E0910F20F09110204C835D835D
S11308706B837A8389830995E0911320F091142086
S11308800995E0911920F0911A2089810995E09148
S11308901920F0911A207A81872F0995E091192067
S11308A0F0911A206B81862F846009954C81E42E87
S11308B05D81F52E0E0D1F1DE016F10649F0E09145
S11308C01920F0911A20D7018D917D010995F4CF5B
S11308D0E0911520F09116200995E0911120F091F6
S11308E012202596CDBFDEBFDF91CF911F910F91CE
S11308F0FF90EF9009940895089508950895FB01D9
S113090080810895FB014083089580E0089508954F
S1130910009719F06115710569F48DE794E08093EF
S11309201320909314208EE794E0809315209093E5
S1130930162008958093132090931420609315201B
S1130940709316200895209107203091082031FFDC
S1130950FFCF009719F06115710569F485E894E0FB
S1130960809317209093182087E894E080931920AF
S113097090931A20089580931720909318206093E1
S1130980192070931A200895CF93DF93CDB7DEB763
S11309906297CDBFDEBF26E030E0AE014F5F5F4F10
S11309A060E079E080E090E0FDDE24E030E0AE013C
S11309B0415F5F4F60E071E080E090E0F3DE24E0AF
S11309C030E0AE01455F5F4F60E075E080E090E0AD
S11309D0E9DE24E030E0AE01495F5F4F60E07FE094
S11309E080E090E0DFDE40E860E070E0CB0199DE7B
S11309F060E070E0CB0154DE26E030E0AE014F5FF2
S1130A005F4F60E079E080E090E020DF24E030E0B8
S1130A10AE01415F5F4F60E071E080E090E016DF7F
S1130A2024E030E0AE01455F5F4F60E075E080E0B8
S1130A3090E00CDF24E030E0AE01495F5F4F60E0FE
S1130A407FE080E090E002DF6296CDBFDEBFDF9101
S1130A50CF910895EF92FF920F931F93CF93DF935B
S1130A60EC018B0191DF209721F40115110519F593
S1130A7041C0FE0198E080E02191820F9150E1F79E
S1130A80813114F08FEF37C07E01C1E0D0E0F7016F
S1130A9041917F01BE0193E0660F771F9A95E1F7BC
S1130AA0715E882777FD8095982F3BDE2496C132AE
S1130AB0D10569F7DACFF80180E090E02191820F47
S1130AC09F5F9830D9F78131ECF6C1E0D0E0F801AE
S1130AD041918F01BE0183E0660F771F8A95E1F78C
S1130AE0725E882777FD8095982F1BDE2496C1328D
S1130AF0D10569F780E0DF91CF911F910F91FF90AD
S1130B00EF900895CF93C92F482F407F60E075E19F
S1130B1080E090E006DE4C2F60E077E180E090E03A
S1130B20CF91FFCDCF9360E075E180E090E0B8DD38
S1130B30C82F60E077E180E090E0B2DD282F30E05C
S1130B40922F8827C07F8C0F911DCF910895CF934A
S1130B50C92F482F60E076E180E090E0E2DD4C2F81
S1130B6060E078E180E090E0CF91DBCDCF9360E06E
S1130B7076E180E090E094DDC82F60E078E180E0E9
S1130B8090E08EDD282F30E0922F88278C0F911D66
S1130B90CF91089560E07EE280E090E081DD817095
S1130BA0089560E07EE280E090E07ADD982F907313
S1130BB081E009F480E0089560E07EE280E090E066
S1130BC06FDD482F4F7760E07EE280E090E0A9DDA2
S1130BD060E07EE280E090E063DD482F406860E002
S1130BE07EE280E090E09DCDFC018081813011F4B3
S1130BF040E401C040E08181813011F448630DC0BC
S1130C0093818281913031F4813011F4486105C0BF
S1130C10486003C0813009F4406160E07EE280E016
S1130C2090E07FDDC9CFCF93DF93EC0160E07EE2FB
S1130C3080E090E035DD86FB992790F998838873EE
S1130C40803211F0883319F491E0998301C019823C
S1130C50883121F0803211F0803119F491E09A83C7
S1130C6001C01A82883121F0803211F0883019F4E1
S1130C7081E08B8301C01B82DF91CF910895CF93D4
S1130C80C82F60E07EE280E090E00ADD86FF1DC0B0
S1130C90482F477CC13011F4406301C0486360E0D1
S1130CA07EE280E090E03DDD87DF60E07EE280E090
S1130CB090E0F6DC982FC13011F4907301C0987362
S1130CC081E0911180E0819501C08FEFCF9108956B
S1130CD01F93CF93DF93EB01482F50E04031510530
S1130CE008F062C0FA01EA5AFF4FBAC14DDE61C092
S1130CF0209719F0685F7F4F02C060E070E0CE017A
S1130D00DF91CF911F91A6CE88819981FBDE51C0DE
S1130D1009DF05C0888199811ADF4BC027DF8883EA
S1130D20998347C0498160E073E180E090E0F9DC99
S1130D30488160E074E180E090E0F3DC3AC060E078
S1130D4073E180E090E0ACDC182F60E074E180E0B7
S1130D5090E0A6DC212F30E0322F2227280F311D0E
S1130D602883398326C080910920888380910A20B2
S1130D70898380910B208A8380910C208B838091BE
S1130D800D208C831D8215C017DF13C0CB012CDF0F
S1130D9010C0CB0148DF0DC08881DF91CF911F9136
S1130DA06ECFFFDE8F3F21F48FEF04C0F3DEFACF66
S1130DB0888380E0DF91CF911F910895CF93DF93D3
S1130DC0EC0126E030E0AC0160E079E080E090E006
S1130DD03DDDAE01425F5F4F24E030E060E071E052
S1130DE080E090E033DDAE01465F5F4F24E030E009
S1130DF060E075E080E090E029DDAE014A5F5F4F7E
S1130E0024E030E060E07FE080E090E01FDD8A894C
S1130E10809343208B89809344208C898093452040
S1130E208D89809346208E8980934220DF91CF91D3
S1130E300895CF93DF93EC0126E030E0AC0160E04D
S1130E4079E080E090E0AEDCAE01425F5F4F24E0E9
S1130E5030E060E071E080E090E0A4DCAE01465F49
S1130E605F4F24E030E060E075E080E090E09ADCE1
S1130E70AE014A5F5F4F24E030E060E07FE080E055
S1130E8090E090DC809143208A8B809144208B8B6E
S1130E90809145208C8B809146208D8B80914220BF
S1130EA08E8BDF91CF910895CF93C82F857C61F409
S1130EB060E070E0CB01F4DB482F4C2B60E070E085
S1130EC0CB012FDC80E001C08FEFCF91089560E06B
S1130ED070E0CB01E5CBCF93DF93EC01488160E078
S1130EE07BE180E090E01DDC4A8160E079E180E014
S1130EF090E017DC498160E07AE180E090E0DF91E6
S1130F00CF910FCC1F93CF93DF93EC0160E07BE193
S1130F1080E090E0C5DB888360E079E180E090E0E8
S1130F20BFDB182F60E07AE180E090E0B9DB212F8D
S1130F3030E0322F2227280F311D29833A83DF9195
S1130F40CF911F910895CF93DF93EB01823099F0F5
S1130F5038F4882369F08130C9F4CB016ADF14C006
S1130F60843081F060F0853089F4CB01CBDF0CC094
S1130F70CB0124DF09C08881DF91CF9195CFA7DF12
S1130F80888302C0CB01A7DF80E001C08FEFDF912F
S1130F90CF9108958FEF80937000809371008093B8
S1130FA07200809373008093740080937500809323
S1130FB076009FB7F894809150008260809350002F
S1130FC09FBF8091510081FFFCCF61E080E490E0FD
S1130FD015D09FB7F894809150008E7F8093500075
S1130FE09FBF08959FB7F894E82FF0E0E059FF4FB2
S1130FF060958081862380839FBF08951BBEFC017A
S113100028ED24BF60830895E0E0F6E080E2868363
S113101081838FE0E0E6F6E085830895A1E21A2E4D
S1131020AA1BBB1BFD010DC0AA1FBB1FEE1FFF1F88
S1131030A217B307E407F50720F0A21BB30BE40BD8
S1131040F50B661F771F881F991F1A9469F760951F
S11310507095809590959B01AC01BD01CF010895D9
S1131060EE0FFF1F0590F491E02D0994F894FFCF43
S11310708025000003000001025735353030007B25
S1131080047C047D047E047F0482040008DC0000E8
S113109001C0A8017BFFFFFF00C0A8010100000000
S11310A0000102020202020202020202020202021F
S10510B0020236
S9030000FC
