:1000000055C000005BC0000059C0000057C0000090
:1000100055C0000053C0000051C000004FC0000098
:100020004DC000004BC0000049C0000047C00000A8
:1000300045C0000043C0000041C000003FC00000B8
:100040003DC000003BC0000039C0000037C00000C8
:1000500035C0000033C0000031C000002FC00000D8
:100060002DC000002BC0000029C0000027C00000E8
:1000700025C0000023C0000021C000001FC00000F8
:100080001DC000001BC0000019C0000017C0000008
:1000900015C0000013C0000011C000000FC0000018
:1000A0000DC000000BC0000009C0000011241FBEDD
:1000B000CFEFD3E2DEBFCDBF36D080C0A1CF61503D
:1000C000710981099109D9F708951F93CF93DF939F
:1000D000C0E4D6E010E21D8360E070E0CB01EFDF0A
:1000E0001E8360E070E0CB01DF91CF911F91E7CFDD
:1000F0001F93CF93DF9380E180934606D92FC8E00A
:1001000010E8D7FF03C01093450602C010934606BF
:10011000DCDFDD0FC150A9F780E180934506DF9158
:10012000CF911F91089544D080E18093410680E2F1
:100130008093410680E88093410665E176E185E0A1
:1001400090E0BDDF60E075E089E090E0D1DF68E03D
:1001500075E08AE090E0CCDF6CED75E08BE090E03C
:10016000C7DF61E075E08CE090E0C2DF62E075E03F
:100170008DE090E0BDDF63E075E08EE090E0B8DFF9
:100180006CEA75E08FE090E0B3DF60E175E080E15C
:1001900090E0AEDF6FE075E081E190E0A9DF63E61B
:1001A00075E082E190E0A4DF80E280930606FDCF57
:1001B000E0E0F6E080E2858381830895F894FFCF44
:00000001FF
